S00F00004C45444374726C2E73726563AB
S11300000EC028C027C026C025C024C023C022C0DB
S113001021C020C02BC01EC01DC01CC01BC0112489
S11300201FBECFE5D2E0DEBFCDBF10E0A0E6B0E05A
S1130030EEE3F5E002C005900D92A636B107D9F7BC
S113004020E0A6E6B0E001C01D92AB36B207E1F7AE
S113005042D173C2D5CF83E087B987E886B90895C2
S1130060369A3699FECF84B195B108951F920F92B6
S11300700FB60F9211242F933F934F935F936F9377
S11300807F938F939F93AF93BF93EF93FF93CF93FC
S1130090DF93CDB7DEB72C97DEBFCDBF8091630071
S11300A090916400CC9750F4809163009091640027
S11300B001969093640080936300F4C0D1DFBC0187
S11300C080E090E019D120E030E040EA50E479D1BA
S11300D020E030E040E85AE374D1209166002130FA
S11300E009F45FC020F0223009F49AC0D7C020E0A0
S11300F030E040E250E461D118160CF029C088B316
S11301008F7E8A8738B33061E0E6F0E043E650E062
S113011081918C879C852A8588E038BB000000008B
S11301200000000097FF28BB990F000000000000AA
S1130130000028BB00000000000000008A9569F759
S11301408B87E417F50721F782E080936600A6C049
S113015088B38F7E8F8338B33061E7E6F0E04AE6F8
S113016050E08191898799852F8188E038BB000010
S113017000000000000097FF28BB990F000000005A
S11301800000000028BB00000000000000008A9569
S113019069F788874E175F0721F781E0809366002F
S11301A07DC020E030E040E250E407D1181634F47A
S11301B080916A008F5F80936A0002C010926A0087
S11301C080916A00823008F469C088B38F7E8C8382
S11301D088B38061E0E6F0E043E650E091919E83CD
S11301E02E813C8198E088BB0000000000000000E4
S11301F027FF38BB220F000000000000000038BBBE
S113020000000000000000009A9569F79D834E17D6
S11302105F0721F710926A0082E0809366003EC077
S11302202DEC3CEC4CE050E463D0882334F4809112
S11302306A008F5F80936A0002C010926A00809106
S11302406A00823008F42AC088B38F7E898388B319
S11302508061E7E6F0E04AE650E091919B832B81D0
S1130260398198E088BB000000000000000027FFEF
S113027038BB220F000000000000000038BB000063
S11302800000000000009A9569F79A834E175F07F3
S113029021F710926A0081E0809366001092640056
S11302A0109263002C960FB6F894DEBF0FBECDBF3C
S11302B0DF91CF91FF91EF91BF91AF919F918F917A
S11302C07F916F915F914F913F912F910F900FBE4E
S11302D00F901F901895BC9ABEDE82E08ABD85E01F
S11302E083BF8FEF89BD89B7806189BF7894FFCFC1
S11302F040D008F481E00895E89409C097FB3EF4E7
S113030090958095709561957F4F8F4F9F4F99235E
S1130310A9F0F92F96E9BB279395F69587957795DC
S11303206795B795F111F8CFFAF4BB0F11F460FF9C
S11303301BC06F5F7F4F8F4F9F4F16C0882311F0F4
S113034096E911C0772321F09EE8872F762F05C008
S1130350662371F096E8862F70E060E02AF09A95A3
S1130360660F771F881FDAF7880F9695879597F998
S11303700895990F0008550FAA0BE0E8FEEF161632
S11303801706E807F907C0F012161306E407F50785
S113039098F0621B730B840B950B39F40A2661F0F9
S11303A0232B242B252B21F408950A2609F4A1409C
S11303B0A6958FEF811D811D0895DBDF08F48FEF73
S11303C008950AD080C071D028F076D018F0952313
S11303D009F062C067C0ABC087D0A8F39923D9F3F2
S11303E05523C9F3950F50E0551FAA27EE27FF2781
S11303F0BB2700240894679520F4E20FF31FB41F71
S11304000A1E220F331F441FAA1F6695A9F777956A
S113041030F4F30FB41F0A1E121E08F46395330F51
S1130420441FAA1F221F769599F7879520F4B40FCD
S11304300A1E121E631F440FAA1F221F331F869514
S1130440A9F7862F712D602D11249F5750408AF0F3
S1130450E1F088234AF0EE0FFF1FBB1F661F771FD2
S1130460881F91505040A9F79E3F510570F014C069
S11304705EC05F3FECF3983EDCF386957795679515
S1130480B795F795E7959F5FC1F7FE2B880F911DF0
S11304909695879597F9089597F99F6780E870E096
S11304A060E008959FEF80EC089500240A941616E6
S11304B0170618060906089500240A94121613064E
S11304C0140605060895092E0394000C11F48823DC
S11304D052F0BB0F40F4BF2B11F460FF04C06F5FF8
S11304E07F4F8F4F9F4F089557FD9058440F551FCE
S11304F059F05F3F71F04795880F97FB991F61F0A2
S11305009F3F79F087950895121613061406551F18
S1130510F2CF4695F1DF08C0161617061806991F84
S1130520F1CF86957105610508940895E894BB2779
S111053066277727CB0197F90895F894FFCF3B
S109053E666666FFFF0083
S9030000FC
